{
  "address": "0x0315294DE5e01749c69d2d816964a4F497e62996",
  "abi": [
    {
      "inputs": [],
      "stateMutability": "nonpayable",
      "type": "constructor"
    },
    {
      "anonymous": false,
      "inputs": [
        {
          "indexed": true,
          "internalType": "address",
          "name": "user",
          "type": "address"
        },
        {
          "indexed": true,
          "internalType": "address",
          "name": "token",
          "type": "address"
        },
        {
          "indexed": false,
          "internalType": "uint256",
          "name": "amount",
          "type": "uint256"
        }
      ],
      "name": "StartLoaning",
      "type": "event"
    },
    {
      "anonymous": false,
      "inputs": [
        {
          "indexed": true,
          "internalType": "address",
          "name": "user",
          "type": "address"
        },
        {
          "indexed": true,
          "internalType": "address",
          "name": "token",
          "type": "address"
        },
        {
          "indexed": false,
          "internalType": "uint256",
          "name": "amount",
          "type": "uint256"
        }
      ],
      "name": "StopLoaning",
      "type": "event"
    },
    {
      "inputs": [],
      "name": "AAVE_POOL",
      "outputs": [
        {
          "internalType": "contract IPool",
          "name": "",
          "type": "address"
        }
      ],
      "stateMutability": "view",
      "type": "function"
    },
    {
      "inputs": [],
      "name": "ADAI",
      "outputs": [
        {
          "internalType": "contract IERC20",
          "name": "",
          "type": "address"
        }
      ],
      "stateMutability": "view",
      "type": "function"
    },
    {
      "inputs": [],
      "name": "DAI",
      "outputs": [
        {
          "internalType": "contract IERC20",
          "name": "",
          "type": "address"
        }
      ],
      "stateMutability": "view",
      "type": "function"
    },
    {
      "inputs": [],
      "name": "startloanDAI",
      "outputs": [],
      "stateMutability": "nonpayable",
      "type": "function"
    },
    {
      "inputs": [],
      "name": "stopLoanDAI",
      "outputs": [],
      "stateMutability": "nonpayable",
      "type": "function"
    }
  ],
  "transactionHash": "0x904ac8ed6c0618be2176821eac9f6f213105643d88bfabb5710307146aca3b6f",
  "args": [],
  "numDeployments": 1,
  "solcInputHash": "c12c2c7f6397a84bf26ce443943126f4",
  "bytecode": "0x6080604052600080546001600160a01b0319908116736c9fb0d5bd9429eb9cd96b85b81d872281771e6b17909155600180548216739a753f0f7886c9fbf63cf59d0d4423c5eface95b1790556002805490911673dd4f3ee61466c4158d394d57f3d4c397e91fbc5117905534801561007657600080fd5b50610373806100866000396000f3fe608060405234801561001057600080fd5b50600436106100575760003560e01c806308a016751461005c57806339ec407b1461008b57806358199b051461009e578063e0bab4c4146100a8578063fa717260146100bb575b600080fd5b60005461006f906001600160a01b031681565b6040516001600160a01b03909116815260200160405180910390f35b60025461006f906001600160a01b031681565b6100a66100c3565b005b60015461006f906001600160a01b031681565b6100a66101f4565b6001546040516370a0823160e01b81523360048201526000916001600160a01b0316906370a0823190602401602060405180830381865afa15801561010c573d6000803e3d6000fd5b505050506040513d601f19601f820116820180604052508101906101309190610324565b6000805460015460405163617ba03760e01b81526001600160a01b039182166004820152602481018590523360448201526064810193909352929350919091169063617ba03790608401600060405180830381600087803b15801561019457600080fd5b505af11580156101a8573d6000803e3d6000fd5b50506001546040518481526001600160a01b0390911692503391507f46588cb4de245029a50c752511af49dc437c8e382c1ea925b4901158b9a96d11906020015b60405180910390a350565b6002546040516370a0823160e01b81523360048201526000916001600160a01b0316906370a0823190602401602060405180830381865afa15801561023d573d6000803e3d6000fd5b505050506040513d601f19601f820116820180604052508101906102619190610324565b600054600154604051631a4ca37b60e21b81526001600160a01b0391821660048201526024810184905233604482015292935016906369328dec906064016020604051808303816000875af11580156102be573d6000803e3d6000fd5b505050506040513d601f19601f820116820180604052508101906102e29190610324565b506001546040518281526001600160a01b039091169033907fb68a3d413f2e3a1fbd2572c2be4936c3772f3f7c726fae5850c760a2d1789601906020016101e9565b60006020828403121561033657600080fd5b505191905056fea264697066735822122079362f66bc808b8f8cf1325df3d28c0b2cb547118674f12fab3ec73144af296c64736f6c634300080a0033",
  "devdoc": {
    "kind": "dev",
    "methods": {},
    "version": 1
  },
  "userdoc": {
    "kind": "user",
    "methods": {
      "startloanDAI()": {
        "notice": "Deposit DAI into AAVE"
      },
      "stopLoanDAI()": {
        "notice": "Withdraw DAI from AAVE"
      }
    },
    "version": 1
  },
  "storageLayout": {
    "storage": [
      {
        "astId": 90,
        "contract": "contracts/WooshCore.sol:WooshCore",
        "label": "AAVE_POOL",
        "offset": 0,
        "slot": "0",
        "type": "t_contract(IPool)1167"
      },
      {
        "astId": 96,
        "contract": "contracts/WooshCore.sol:WooshCore",
        "label": "DAI",
        "offset": 0,
        "slot": "1",
        "type": "t_contract(IERC20)77"
      },
      {
        "astId": 102,
        "contract": "contracts/WooshCore.sol:WooshCore",
        "label": "ADAI",
        "offset": 0,
        "slot": "2",
        "type": "t_contract(IERC20)77"
      }
    ],
    "types": {
      "t_contract(IERC20)77": {
        "encoding": "inplace",
        "label": "contract IERC20",
        "numberOfBytes": "20"
      },
      "t_contract(IPool)1167": {
        "encoding": "inplace",
        "label": "contract IPool",
        "numberOfBytes": "20"
      }
    }
  }
}